{
  "_format": "hh-sol-artifact-1",
  "contractName": "CoinFlip",
  "sourceName": "src/backend/contracts/CoinFlip.sol",
  "abi": [
    {
      "inputs": [
        {
          "internalType": "address",
          "name": "_houseAddress",
          "type": "address"
        },
        {
          "internalType": "uint64",
          "name": "subscriptionId",
          "type": "uint64"
        }
      ],
      "stateMutability": "nonpayable",
      "type": "constructor"
    },
    {
      "inputs": [
        {
          "internalType": "address",
          "name": "have",
          "type": "address"
        },
        {
          "internalType": "address",
          "name": "want",
          "type": "address"
        }
      ],
      "name": "OnlyCoordinatorCanFulfill",
      "type": "error"
    },
    {
      "anonymous": false,
      "inputs": [
        {
          "indexed": false,
          "internalType": "address",
          "name": "user",
          "type": "address"
        },
        {
          "indexed": false,
          "internalType": "uint256",
          "name": "amount",
          "type": "uint256"
        },
        {
          "indexed": false,
          "internalType": "uint256",
          "name": "result",
          "type": "uint256"
        },
        {
          "indexed": false,
          "internalType": "uint256",
          "name": "betId",
          "type": "uint256"
        }
      ],
      "name": "BetSettled",
      "type": "event"
    },
    {
      "anonymous": false,
      "inputs": [
        {
          "indexed": false,
          "internalType": "address",
          "name": "user",
          "type": "address"
        },
        {
          "indexed": false,
          "internalType": "uint256",
          "name": "amount",
          "type": "uint256"
        },
        {
          "indexed": false,
          "internalType": "uint256",
          "name": "betId",
          "type": "uint256"
        }
      ],
      "name": "BetStarted",
      "type": "event"
    },
    {
      "anonymous": false,
      "inputs": [
        {
          "indexed": true,
          "internalType": "address",
          "name": "previousOwner",
          "type": "address"
        },
        {
          "indexed": true,
          "internalType": "address",
          "name": "newOwner",
          "type": "address"
        }
      ],
      "name": "OwnershipTransferred",
      "type": "event"
    },
    {
      "inputs": [],
      "name": "owner",
      "outputs": [
        {
          "internalType": "address",
          "name": "",
          "type": "address"
        }
      ],
      "stateMutability": "view",
      "type": "function"
    },
    {
      "inputs": [
        {
          "internalType": "uint256",
          "name": "_betAmount",
          "type": "uint256"
        }
      ],
      "name": "play",
      "outputs": [],
      "stateMutability": "nonpayable",
      "type": "function"
    },
    {
      "inputs": [
        {
          "internalType": "uint256",
          "name": "requestId",
          "type": "uint256"
        },
        {
          "internalType": "uint256[]",
          "name": "randomWords",
          "type": "uint256[]"
        }
      ],
      "name": "rawFulfillRandomWords",
      "outputs": [],
      "stateMutability": "nonpayable",
      "type": "function"
    },
    {
      "inputs": [],
      "name": "renounceOwnership",
      "outputs": [],
      "stateMutability": "nonpayable",
      "type": "function"
    },
    {
      "inputs": [],
      "name": "requestFlip",
      "outputs": [],
      "stateMutability": "nonpayable",
      "type": "function"
    },
    {
      "inputs": [
        {
          "internalType": "uint256",
          "name": "",
          "type": "uint256"
        }
      ],
      "name": "s_randomWords",
      "outputs": [
        {
          "internalType": "uint256",
          "name": "",
          "type": "uint256"
        }
      ],
      "stateMutability": "view",
      "type": "function"
    },
    {
      "inputs": [],
      "name": "s_requestId",
      "outputs": [
        {
          "internalType": "uint256",
          "name": "",
          "type": "uint256"
        }
      ],
      "stateMutability": "view",
      "type": "function"
    },
    {
      "inputs": [
        {
          "internalType": "address",
          "name": "newOwner",
          "type": "address"
        }
      ],
      "name": "transferOwnership",
      "outputs": [],
      "stateMutability": "nonpayable",
      "type": "function"
    }
  ],
  "bytecode": "0x60a0604052732ca8e0c643bde4c2e08ab1fa0da3401adad7734d600460006101000a81548173ffffffffffffffffffffffffffffffffffffffff021916908373ffffffffffffffffffffffffffffffffffffffff1602179055507f79d3d8832d904592c0bf9818b621522c988bb8b0c05cdc3b15aea1b6e8db0c1560001b60055562030d40600660006101000a81548163ffffffff021916908363ffffffff1602179055506003600660046101000a81548161ffff021916908361ffff16021790555060016006806101000a81548163ffffffff021916908363ffffffff160217905550348015620000f057600080fd5b506040516200186038038062001860833981810160405281019062000116919062000367565b600460009054906101000a900473ffffffffffffffffffffffffffffffffffffffff16620001596200014d6200026d60201b60201c565b6200027560201b60201c565b600180819055508073ffffffffffffffffffffffffffffffffffffffff1660808173ffffffffffffffffffffffffffffffffffffffff1660601b815250505081600260006101000a81548173ffffffffffffffffffffffffffffffffffffffff021916908373ffffffffffffffffffffffffffffffffffffffff160217905550600460009054906101000a900473ffffffffffffffffffffffffffffffffffffffff16600360006101000a81548173ffffffffffffffffffffffffffffffffffffffff021916908373ffffffffffffffffffffffffffffffffffffffff16021790555080600260146101000a81548167ffffffffffffffff021916908367ffffffffffffffff160217905550505062000424565b600033905090565b60008060009054906101000a900473ffffffffffffffffffffffffffffffffffffffff169050816000806101000a81548173ffffffffffffffffffffffffffffffffffffffff021916908373ffffffffffffffffffffffffffffffffffffffff1602179055508173ffffffffffffffffffffffffffffffffffffffff168173ffffffffffffffffffffffffffffffffffffffff167f8be0079c531659141344cd1fd0a4f28419497f9722a3daafe3b4186f6b6457e060405160405180910390a35050565b6000815190506200034a81620003f0565b92915050565b60008151905062000361816200040a565b92915050565b600080604083850312156200037b57600080fd5b60006200038b8582860162000339565b92505060206200039e8582860162000350565b9150509250929050565b6000620003b582620003bc565b9050919050565b600073ffffffffffffffffffffffffffffffffffffffff82169050919050565b600067ffffffffffffffff82169050919050565b620003fb81620003a8565b81146200040757600080fd5b50565b6200041581620003dc565b81146200042157600080fd5b50565b60805160601c6114166200044a6000396000818161016301526101b701526114166000f3fe608060405234801561001057600080fd5b50600436106100885760003560e01c8063982121c31161005b578063982121c3146100ed578063e89e106a146100f7578063f2fde38b14610115578063f6eaffc81461013157610088565b80631fe543e31461008d5780636898f82b146100a9578063715018a6146100c55780638da5cb5b146100cf575b600080fd5b6100a760048036038101906100a29190610d73565b610161565b005b6100c360048036038101906100be9190610d21565b610221565b005b6100cd610426565b005b6100d76104ae565b6040516100e49190610ead565b60405180910390f35b6100f56104d7565b005b6100ff6105de565b60405161010c9190611069565b60405180910390f35b61012f600480360381019061012a9190610cf8565b6105e4565b005b61014b60048036038101906101469190610d21565b6106dc565b6040516101589190611069565b60405180910390f35b7f000000000000000000000000000000000000000000000000000000000000000073ffffffffffffffffffffffffffffffffffffffff163373ffffffffffffffffffffffffffffffffffffffff161461021357337f00000000000000000000000000000000000000000000000000000000000000006040517f1cf993f400000000000000000000000000000000000000000000000000000000815260040161020a929190610ec8565b60405180910390fd5b61021d8282610700565b5050565b80600260009054906101000a900473ffffffffffffffffffffffffffffffffffffffff1673ffffffffffffffffffffffffffffffffffffffff16634e33f83b336040518263ffffffff1660e01b815260040161027d9190610ead565b60206040518083038186803b15801561029557600080fd5b505afa1580156102a9573d6000803e3d6000fd5b505050506040513d601f19601f820116820180604052508101906102cd9190610d4a565b101561030e576040517f08c379a000000000000000000000000000000000000000000000000000000000815260040161030590611009565b60405180910390fd5b600160095461031d91906110e6565b60098190555061032b6104d7565b600a60405180606001604052803373ffffffffffffffffffffffffffffffffffffffff168152602001838152602001600954815250908060018154018082558091505060019003906000526020600020906003020160009091909190915060008201518160000160006101000a81548173ffffffffffffffffffffffffffffffffffffffff021916908373ffffffffffffffffffffffffffffffffffffffff160217905550602082015181600101556040820151816002015550507fc3281e8efe89980c3ddb85c3081fc5b986777cd3438cc7bc72cd29012d8a97c5338260095460405161041b93929190610f1a565b60405180910390a150565b61042e610aed565b73ffffffffffffffffffffffffffffffffffffffff1661044c6104ae565b73ffffffffffffffffffffffffffffffffffffffff16146104a2576040517f08c379a000000000000000000000000000000000000000000000000000000000815260040161049990611049565b60405180910390fd5b6104ac6000610af5565b565b60008060009054906101000a900473ffffffffffffffffffffffffffffffffffffffff16905090565b600360009054906101000a900473ffffffffffffffffffffffffffffffffffffffff1673ffffffffffffffffffffffffffffffffffffffff16635d3b1d30600554600260149054906101000a900467ffffffffffffffff16600660049054906101000a900461ffff16600660009054906101000a900463ffffffff1660068054906101000a900463ffffffff166040518663ffffffff1660e01b8152600401610584959493929190610f96565b602060405180830381600087803b15801561059e57600080fd5b505af11580156105b2573d6000803e3d6000fd5b505050506040513d601f19601f820116820180604052508101906105d69190610d4a565b600881905550565b60085481565b6105ec610aed565b73ffffffffffffffffffffffffffffffffffffffff1661060a6104ae565b73ffffffffffffffffffffffffffffffffffffffff1614610660576040517f08c379a000000000000000000000000000000000000000000000000000000000815260040161065790611049565b60405180910390fd5b600073ffffffffffffffffffffffffffffffffffffffff168173ffffffffffffffffffffffffffffffffffffffff1614156106d0576040517f08c379a00000000000000000000000000000000000000000000000000000000081526004016106c790610fe9565b60405180910390fd5b6106d981610af5565b50565b600781815481106106ec57600080fd5b906000526020600020016000915090505481565b8060079080519060200190610716929190610bb9565b506000600a80549050905060008111610764576040517f08c379a000000000000000000000000000000000000000000000000000000000815260040161075b90611029565b60405180910390fd5b6000600a600183610775919061113c565b815481106107ac577f4e487b7100000000000000000000000000000000000000000000000000000000600052603260045260246000fd5b90600052602060002090600302016040518060600160405290816000820160009054906101000a900473ffffffffffffffffffffffffffffffffffffffff1673ffffffffffffffffffffffffffffffffffffffff1673ffffffffffffffffffffffffffffffffffffffff1681526020016001820154815260200160028201548152505090506000600160026007600081548110610872577f4e487b7100000000000000000000000000000000000000000000000000000000600052603260045260246000fd5b90600052602060002001546108879190611219565b149050801561092c57600260009054906101000a900473ffffffffffffffffffffffffffffffffffffffff1673ffffffffffffffffffffffffffffffffffffffff16638ac81002836000015184602001516040518363ffffffff1660e01b81526004016108f5929190610ef1565b600060405180830381600087803b15801561090f57600080fd5b505af1158015610923573d6000803e3d6000fd5b505050506109c4565b600260009054906101000a900473ffffffffffffffffffffffffffffffffffffffff1673ffffffffffffffffffffffffffffffffffffffff16631b67d601836000015184602001516040518363ffffffff1660e01b8152600401610991929190610ef1565b600060405180830381600087803b1580156109ab57600080fd5b505af11580156109bf573d6000803e3d6000fd5b505050505b7f675068ae239477166fba1ed7c6eb4f5cf629e68a3cc739025574df9d83b6494f8260000151836020015160026007600081548110610a2c577f4e487b7100000000000000000000000000000000000000000000000000000000600052603260045260246000fd5b9060005260206000200154610a419190611219565b8560400151604051610a569493929190610f51565b60405180910390a1600a805480610a96577f4e487b7100000000000000000000000000000000000000000000000000000000600052603160045260246000fd5b6001900381819060005260206000209060030201600080820160006101000a81549073ffffffffffffffffffffffffffffffffffffffff021916905560018201600090556002820160009055505090555050505050565b600033905090565b60008060009054906101000a900473ffffffffffffffffffffffffffffffffffffffff169050816000806101000a81548173ffffffffffffffffffffffffffffffffffffffff021916908373ffffffffffffffffffffffffffffffffffffffff1602179055508173ffffffffffffffffffffffffffffffffffffffff168173ffffffffffffffffffffffffffffffffffffffff167f8be0079c531659141344cd1fd0a4f28419497f9722a3daafe3b4186f6b6457e060405160405180910390a35050565b828054828255906000526020600020908101928215610bf5579160200282015b82811115610bf4578251825591602001919060010190610bd9565b5b509050610c029190610c06565b5090565b5b80821115610c1f576000816000905550600101610c07565b5090565b6000610c36610c31846110a9565b611084565b90508083825260208201905082856020860282011115610c5557600080fd5b60005b85811015610c855781610c6b8882610cce565b845260208401935060208301925050600181019050610c58565b5050509392505050565b600081359050610c9e816113b2565b92915050565b600082601f830112610cb557600080fd5b8135610cc5848260208601610c23565b91505092915050565b600081359050610cdd816113c9565b92915050565b600081519050610cf2816113c9565b92915050565b600060208284031215610d0a57600080fd5b6000610d1884828501610c8f565b91505092915050565b600060208284031215610d3357600080fd5b6000610d4184828501610cce565b91505092915050565b600060208284031215610d5c57600080fd5b6000610d6a84828501610ce3565b91505092915050565b60008060408385031215610d8657600080fd5b6000610d9485828601610cce565b925050602083013567ffffffffffffffff811115610db157600080fd5b610dbd85828601610ca4565b9150509250929050565b610dd081611170565b82525050565b610ddf81611182565b82525050565b6000610df26026836110d5565b9150610dfd826112e8565b604082019050919050565b6000610e156017836110d5565b9150610e2082611337565b602082019050919050565b6000610e386010836110d5565b9150610e4382611360565b602082019050919050565b6000610e5b6020836110d5565b9150610e6682611389565b602082019050919050565b610e7a8161118c565b82525050565b610e89816111ba565b82525050565b610e98816111c4565b82525050565b610ea7816111d4565b82525050565b6000602082019050610ec26000830184610dc7565b92915050565b6000604082019050610edd6000830185610dc7565b610eea6020830184610dc7565b9392505050565b6000604082019050610f066000830185610dc7565b610f136020830184610e80565b9392505050565b6000606082019050610f2f6000830186610dc7565b610f3c6020830185610e80565b610f496040830184610e80565b949350505050565b6000608082019050610f666000830187610dc7565b610f736020830186610e80565b610f806040830185610e80565b610f8d6060830184610e80565b95945050505050565b600060a082019050610fab6000830188610dd6565b610fb86020830187610e9e565b610fc56040830186610e71565b610fd26060830185610e8f565b610fdf6080830184610e8f565b9695505050505050565b6000602082019050818103600083015261100281610de5565b9050919050565b6000602082019050818103600083015261102281610e08565b9050919050565b6000602082019050818103600083015261104281610e2b565b9050919050565b6000602082019050818103600083015261106281610e4e565b9050919050565b600060208201905061107e6000830184610e80565b92915050565b600061108e61109f565b905061109a82826111e8565b919050565b6000604051905090565b600067ffffffffffffffff8211156110c4576110c36112a8565b5b602082029050602081019050919050565b600082825260208201905092915050565b60006110f1826111ba565b91506110fc836111ba565b9250827fffffffffffffffffffffffffffffffffffffffffffffffffffffffffffffffff038211156111315761113061124a565b5b828201905092915050565b6000611147826111ba565b9150611152836111ba565b9250828210156111655761116461124a565b5b828203905092915050565b600061117b8261119a565b9050919050565b6000819050919050565b600061ffff82169050919050565b600073ffffffffffffffffffffffffffffffffffffffff82169050919050565b6000819050919050565b600063ffffffff82169050919050565b600067ffffffffffffffff82169050919050565b6111f1826112d7565b810181811067ffffffffffffffff821117156112105761120f6112a8565b5b80604052505050565b6000611224826111ba565b915061122f836111ba565b92508261123f5761123e611279565b5b828206905092915050565b7f4e487b7100000000000000000000000000000000000000000000000000000000600052601160045260246000fd5b7f4e487b7100000000000000000000000000000000000000000000000000000000600052601260045260246000fd5b7f4e487b7100000000000000000000000000000000000000000000000000000000600052604160045260246000fd5b6000601f19601f8301169050919050565b7f4f776e61626c653a206e6577206f776e657220697320746865207a65726f206160008201527f6464726573730000000000000000000000000000000000000000000000000000602082015250565b7f4e6f7420656e6f75676820636f696e7320746f20626574000000000000000000600082015250565b7f4e6f206265747320696e20717565756500000000000000000000000000000000600082015250565b7f4f776e61626c653a2063616c6c6572206973206e6f7420746865206f776e6572600082015250565b6113bb81611170565b81146113c657600080fd5b50565b6113d2816111ba565b81146113dd57600080fd5b5056fea264697066735822122079dbadd303ddd63eb863e637ce29498e1633817e15fb9918577d7da3cab96b0c64736f6c63430008040033",
  "linkReferences": {},
  "deployedLinkReferences": {}
}