{
  "_format": "hh-sol-artifact-1",
  "contractName": "House",
  "sourceName": "src/backend/contracts/House.sol",
  "abi": [
    {
      "inputs": [
        {
          "internalType": "address",
          "name": "_newOwner",
          "type": "address"
        },
        {
          "internalType": "address[]",
          "name": "_admins",
          "type": "address[]"
        },
        {
          "internalType": "address",
          "name": "_tokenAddress",
          "type": "address"
        }
      ],
      "stateMutability": "nonpayable",
      "type": "constructor"
    },
    {
      "anonymous": false,
      "inputs": [
        {
          "indexed": true,
          "internalType": "address",
          "name": "previousOwner",
          "type": "address"
        },
        {
          "indexed": true,
          "internalType": "address",
          "name": "newOwner",
          "type": "address"
        }
      ],
      "name": "OwnershipTransferred",
      "type": "event"
    },
    {
      "inputs": [
        {
          "internalType": "address",
          "name": "_playerAddress",
          "type": "address"
        },
        {
          "internalType": "uint256",
          "name": "_amount",
          "type": "uint256"
        }
      ],
      "name": "addPlayerBalance",
      "outputs": [],
      "stateMutability": "nonpayable",
      "type": "function"
    },
    {
      "inputs": [],
      "name": "buyTokens",
      "outputs": [],
      "stateMutability": "payable",
      "type": "function"
    },
    {
      "inputs": [],
      "name": "feePercentDeposit",
      "outputs": [
        {
          "internalType": "uint256",
          "name": "",
          "type": "uint256"
        }
      ],
      "stateMutability": "view",
      "type": "function"
    },
    {
      "inputs": [],
      "name": "feePercentWithdraw",
      "outputs": [
        {
          "internalType": "uint256",
          "name": "",
          "type": "uint256"
        }
      ],
      "stateMutability": "view",
      "type": "function"
    },
    {
      "inputs": [],
      "name": "getFeePercentDeposit",
      "outputs": [
        {
          "internalType": "uint256",
          "name": "",
          "type": "uint256"
        }
      ],
      "stateMutability": "view",
      "type": "function"
    },
    {
      "inputs": [],
      "name": "getFeePercentWithdraw",
      "outputs": [
        {
          "internalType": "uint256",
          "name": "",
          "type": "uint256"
        }
      ],
      "stateMutability": "view",
      "type": "function"
    },
    {
      "inputs": [],
      "name": "getRate",
      "outputs": [
        {
          "internalType": "uint256",
          "name": "",
          "type": "uint256"
        }
      ],
      "stateMutability": "view",
      "type": "function"
    },
    {
      "inputs": [
        {
          "internalType": "address",
          "name": "_user",
          "type": "address"
        }
      ],
      "name": "isAdmin",
      "outputs": [
        {
          "internalType": "bool",
          "name": "",
          "type": "bool"
        }
      ],
      "stateMutability": "view",
      "type": "function"
    },
    {
      "inputs": [
        {
          "internalType": "address",
          "name": "_gameContract",
          "type": "address"
        }
      ],
      "name": "isGameContract",
      "outputs": [
        {
          "internalType": "bool",
          "name": "",
          "type": "bool"
        }
      ],
      "stateMutability": "view",
      "type": "function"
    },
    {
      "inputs": [],
      "name": "owner",
      "outputs": [
        {
          "internalType": "address",
          "name": "",
          "type": "address"
        }
      ],
      "stateMutability": "view",
      "type": "function"
    },
    {
      "inputs": [
        {
          "internalType": "address",
          "name": "_playerAddress",
          "type": "address"
        }
      ],
      "name": "playerBalance",
      "outputs": [
        {
          "internalType": "uint256",
          "name": "",
          "type": "uint256"
        }
      ],
      "stateMutability": "view",
      "type": "function"
    },
    {
      "inputs": [],
      "name": "rate",
      "outputs": [
        {
          "internalType": "uint256",
          "name": "",
          "type": "uint256"
        }
      ],
      "stateMutability": "view",
      "type": "function"
    },
    {
      "inputs": [],
      "name": "renounceOwnership",
      "outputs": [],
      "stateMutability": "nonpayable",
      "type": "function"
    },
    {
      "inputs": [
        {
          "internalType": "uint256",
          "name": "_amount",
          "type": "uint256"
        }
      ],
      "name": "sellTokens",
      "outputs": [],
      "stateMutability": "nonpayable",
      "type": "function"
    },
    {
      "inputs": [
        {
          "internalType": "address[]",
          "name": "_admins",
          "type": "address[]"
        }
      ],
      "name": "setAdmins",
      "outputs": [],
      "stateMutability": "nonpayable",
      "type": "function"
    },
    {
      "inputs": [
        {
          "internalType": "uint256",
          "name": "_fee",
          "type": "uint256"
        }
      ],
      "name": "setFeePercentDeposit",
      "outputs": [],
      "stateMutability": "nonpayable",
      "type": "function"
    },
    {
      "inputs": [
        {
          "internalType": "uint256",
          "name": "_fee",
          "type": "uint256"
        }
      ],
      "name": "setFeePercentWithdraw",
      "outputs": [],
      "stateMutability": "nonpayable",
      "type": "function"
    },
    {
      "inputs": [
        {
          "internalType": "address[]",
          "name": "_gameContracts",
          "type": "address[]"
        }
      ],
      "name": "setGameContracts",
      "outputs": [],
      "stateMutability": "nonpayable",
      "type": "function"
    },
    {
      "inputs": [
        {
          "internalType": "uint256",
          "name": "_rate",
          "type": "uint256"
        }
      ],
      "name": "setRate",
      "outputs": [],
      "stateMutability": "nonpayable",
      "type": "function"
    },
    {
      "inputs": [
        {
          "internalType": "address",
          "name": "_playerAddress",
          "type": "address"
        },
        {
          "internalType": "uint256",
          "name": "_amount",
          "type": "uint256"
        }
      ],
      "name": "substractPlayerBalance",
      "outputs": [],
      "stateMutability": "nonpayable",
      "type": "function"
    },
    {
      "inputs": [
        {
          "internalType": "address",
          "name": "newOwner",
          "type": "address"
        }
      ],
      "name": "transferOwnership",
      "outputs": [],
      "stateMutability": "nonpayable",
      "type": "function"
    },
    {
      "inputs": [],
      "name": "withdraw",
      "outputs": [],
      "stateMutability": "nonpayable",
      "type": "function"
    }
  ],
  "bytecode": "0x6080604052620186a0600255602860035560056004553480156200002257600080fd5b506040516200238e3803806200238e833981810160405281019062000048919062000488565b620000686200005c620000f360201b60201c565b620000fb60201b60201c565b600180819055506200008083620001bf60201b60201c565b80600760006101000a81548173ffffffffffffffffffffffffffffffffffffffff021916908373ffffffffffffffffffffffffffffffffffffffff16021790555060066000620000d19190620002fe565b8160069080519060200190620000e992919062000321565b505050506200072e565b600033905090565b60008060009054906101000a900473ffffffffffffffffffffffffffffffffffffffff169050816000806101000a81548173ffffffffffffffffffffffffffffffffffffffff021916908373ffffffffffffffffffffffffffffffffffffffff1602179055508173ffffffffffffffffffffffffffffffffffffffff168173ffffffffffffffffffffffffffffffffffffffff167f8be0079c531659141344cd1fd0a4f28419497f9722a3daafe3b4186f6b6457e060405160405180910390a35050565b620001cf620000f360201b60201c565b73ffffffffffffffffffffffffffffffffffffffff16620001f5620002d560201b60201c565b73ffffffffffffffffffffffffffffffffffffffff16146200024e576040517f08c379a0000000000000000000000000000000000000000000000000000000008152600401620002459062000567565b60405180910390fd5b600073ffffffffffffffffffffffffffffffffffffffff168173ffffffffffffffffffffffffffffffffffffffff161415620002c1576040517f08c379a0000000000000000000000000000000000000000000000000000000008152600401620002b89062000545565b60405180910390fd5b620002d281620000fb60201b60201c565b50565b60008060009054906101000a900473ffffffffffffffffffffffffffffffffffffffff16905090565b50805460008255906000526020600020908101906200031e9190620003b0565b50565b8280548282559060005260206000209081019282156200039d579160200282015b828111156200039c5782518260006101000a81548173ffffffffffffffffffffffffffffffffffffffff021916908373ffffffffffffffffffffffffffffffffffffffff1602179055509160200191906001019062000342565b5b509050620003ac9190620003b0565b5090565b5b80821115620003cb576000816000905550600101620003b1565b5090565b6000620003e6620003e084620005b2565b62000589565b905080838252602082019050828560208602820111156200040657600080fd5b60005b858110156200043a57816200041f888262000444565b84526020840193506020830192505060018101905062000409565b5050509392505050565b600081519050620004558162000714565b92915050565b600082601f8301126200046d57600080fd5b81516200047f848260208601620003cf565b91505092915050565b6000806000606084860312156200049e57600080fd5b6000620004ae8682870162000444565b935050602084015167ffffffffffffffff811115620004cc57600080fd5b620004da868287016200045b565b9250506040620004ed8682870162000444565b9150509250925092565b600062000506602683620005e1565b915062000513826200069c565b604082019050919050565b60006200052d602083620005e1565b91506200053a82620006eb565b602082019050919050565b600060208201905081810360008301526200056081620004f7565b9050919050565b6000602082019050818103600083015262000582816200051e565b9050919050565b600062000595620005a8565b9050620005a3828262000626565b919050565b6000604051905090565b600067ffffffffffffffff821115620005d057620005cf6200065c565b5b602082029050602081019050919050565b600082825260208201905092915050565b6000620005ff8262000606565b9050919050565b600073ffffffffffffffffffffffffffffffffffffffff82169050919050565b62000631826200068b565b810181811067ffffffffffffffff821117156200065357620006526200065c565b5b80604052505050565b7f4e487b7100000000000000000000000000000000000000000000000000000000600052604160045260246000fd5b6000601f19601f8301169050919050565b7f4f776e61626c653a206e6577206f776e657220697320746865207a65726f206160008201527f6464726573730000000000000000000000000000000000000000000000000000602082015250565b7f4f776e61626c653a2063616c6c6572206973206e6f7420746865206f776e6572600082015250565b6200071f81620005f2565b81146200072b57600080fd5b50565b611c50806200073e6000396000f3fe6080604052600436106101355760003560e01c8063715018a6116100ab578063a32c39981161006f578063a32c3998146103d8578063accc1d5e14610403578063ba0673841461042c578063c04a7d0d14610457578063d0febe4c14610494578063f2fde38b1461049e57610135565b8063715018a61461031957806377fc53e41461033057806384021fc31461035b5780638ac81002146103845780638da5cb5b146103ad57610135565b806334fcf437116100fd57806334fcf4371461021d5780633ccfd60b146102465780634e33f83b1461025d578063679aefce1461029a57806369537c79146102c55780636c11bcd3146102f057610135565b80631b67d6011461013a578063247265fa1461016357806324d7806c1461018c5780632c4e722e146101c95780632f1c0223146101f4575b600080fd5b34801561014657600080fd5b50610161600480360381019061015c919061146a565b6104c7565b005b34801561016f57600080fd5b5061018a60048036038101906101859190611514565b6105c5565b005b34801561019857600080fd5b506101b360048036038101906101ae9190611441565b610617565b6040516101c09190611726565b60405180910390f35b3480156101d557600080fd5b506101de6106e7565b6040516101eb9190611841565b60405180910390f35b34801561020057600080fd5b5061021b600480360381019061021691906114a6565b6106ed565b005b34801561022957600080fd5b50610244600480360381019061023f9190611514565b610759565b005b34801561025257600080fd5b5061025b6107ab565b005b34801561026957600080fd5b50610284600480360381019061027f9190611441565b61083c565b6040516102919190611841565b60405180910390f35b3480156102a657600080fd5b506102af6108f0565b6040516102bc9190611841565b60405180910390f35b3480156102d157600080fd5b506102da6108fa565b6040516102e79190611841565b60405180910390f35b3480156102fc57600080fd5b5061031760048036038101906103129190611514565b610900565b005b34801561032557600080fd5b5061032e610bbb565b005b34801561033c57600080fd5b50610345610c43565b6040516103529190611841565b60405180910390f35b34801561036757600080fd5b50610382600480360381019061037d9190611514565b610c4d565b005b34801561039057600080fd5b506103ab60048036038101906103a6919061146a565b610c9f565b005b3480156103b957600080fd5b506103c2610d9b565b6040516103cf91906116ab565b60405180910390f35b3480156103e457600080fd5b506103ed610dc4565b6040516103fa9190611841565b60405180910390f35b34801561040f57600080fd5b5061042a600480360381019061042591906114a6565b610dca565b005b34801561043857600080fd5b50610441610e36565b60405161044e9190611841565b60405180910390f35b34801561046357600080fd5b5061047e60048036038101906104799190611441565b610e40565b60405161048b9190611726565b60405180910390f35b61049c610f76565b005b3480156104aa57600080fd5b506104c560048036038101906104c09190611441565b611101565b005b6104d033610e40565b61050f576040517f08c379a000000000000000000000000000000000000000000000000000000000815260040161050690611761565b60405180910390fd5b600760009054906101000a900473ffffffffffffffffffffffffffffffffffffffff1673ffffffffffffffffffffffffffffffffffffffff166323b872dd8330846040518463ffffffff1660e01b815260040161056e939291906116c6565b602060405180830381600087803b15801561058857600080fd5b505af115801561059c573d6000803e3d6000fd5b505050506040513d601f19601f820116820180604052508101906105c091906114eb565b505050565b6105ce33610617565b61060d576040517f08c379a0000000000000000000000000000000000000000000000000000000008152600401610604906117e1565b60405180910390fd5b8060038190555050565b600080600680549050905060005b818110156106db578373ffffffffffffffffffffffffffffffffffffffff166006828154811061067e577f4e487b7100000000000000000000000000000000000000000000000000000000600052603260045260246000fd5b9060005260206000200160009054906101000a900473ffffffffffffffffffffffffffffffffffffffff1673ffffffffffffffffffffffffffffffffffffffff1614156106d0576001925050506106e2565b806001019050610625565b5060009150505b919050565b60025481565b6106f633610617565b610735576040517f08c379a000000000000000000000000000000000000000000000000000000000815260040161072c906117e1565b60405180910390fd5b6005600061074391906112c5565b8181600591906107549291906112e6565b505050565b61076233610617565b6107a1576040517f08c379a0000000000000000000000000000000000000000000000000000000008152600401610798906117e1565b60405180910390fd5b8060028190555050565b6107b433610617565b6107f3576040517f08c379a00000000000000000000000000000000000000000000000000000000081526004016107ea906117e1565b60405180910390fd5b3373ffffffffffffffffffffffffffffffffffffffff166108fc479081150290604051600060405180830381858888f19350505050158015610839573d6000803e3d6000fd5b50565b6000600760009054906101000a900473ffffffffffffffffffffffffffffffffffffffff1673ffffffffffffffffffffffffffffffffffffffff166370a08231836040518263ffffffff1660e01b815260040161089991906116ab565b60206040518083038186803b1580156108b157600080fd5b505afa1580156108c5573d6000803e3d6000fd5b505050506040513d601f19601f820116820180604052508101906108e9919061153d565b9050919050565b6000600254905090565b60045481565b60026001541415610946576040517f08c379a000000000000000000000000000000000000000000000000000000000815260040161093d90611821565b60405180910390fd5b600260018190555060006103e86003546103e861096391906118f8565b60025484610971919061186d565b61097b919061189e565b610985919061186d565b905081600760009054906101000a900473ffffffffffffffffffffffffffffffffffffffff1673ffffffffffffffffffffffffffffffffffffffff166370a08231336040518263ffffffff1660e01b81526004016109e391906116ab565b60206040518083038186803b1580156109fb57600080fd5b505afa158015610a0f573d6000803e3d6000fd5b505050506040513d601f19601f82011682018060405250810190610a33919061153d565b1015610a74576040517f08c379a0000000000000000000000000000000000000000000000000000000008152600401610a6b90611781565b60405180910390fd5b80471015610ab7576040517f08c379a0000000000000000000000000000000000000000000000000000000008152600401610aae906117c1565b60405180910390fd5b3373ffffffffffffffffffffffffffffffffffffffff166108fc829081150290604051600060405180830381858888f19350505050158015610afd573d6000803e3d6000fd5b50600760009054906101000a900473ffffffffffffffffffffffffffffffffffffffff1673ffffffffffffffffffffffffffffffffffffffff166323b872dd3330856040518463ffffffff1660e01b8152600401610b5d939291906116c6565b602060405180830381600087803b158015610b7757600080fd5b505af1158015610b8b573d6000803e3d6000fd5b505050506040513d601f19601f82011682018060405250810190610baf91906114eb565b50506001808190555050565b610bc36111f9565b73ffffffffffffffffffffffffffffffffffffffff16610be1610d9b565b73ffffffffffffffffffffffffffffffffffffffff1614610c37576040517f08c379a0000000000000000000000000000000000000000000000000000000008152600401610c2e906117a1565b60405180910390fd5b610c416000611201565b565b6000600454905090565b610c5633610617565b610c95576040517f08c379a0000000000000000000000000000000000000000000000000000000008152600401610c8c906117e1565b60405180910390fd5b8060048190555050565b610ca833610e40565b610ce7576040517f08c379a0000000000000000000000000000000000000000000000000000000008152600401610cde90611761565b60405180910390fd5b600760009054906101000a900473ffffffffffffffffffffffffffffffffffffffff1673ffffffffffffffffffffffffffffffffffffffff1663a9059cbb83836040518363ffffffff1660e01b8152600401610d449291906116fd565b602060405180830381600087803b158015610d5e57600080fd5b505af1158015610d72573d6000803e3d6000fd5b505050506040513d601f19601f82011682018060405250810190610d9691906114eb565b505050565b60008060009054906101000a900473ffffffffffffffffffffffffffffffffffffffff16905090565b60035481565b610dd333610617565b610e12576040517f08c379a0000000000000000000000000000000000000000000000000000000008152600401610e09906117e1565b60405180910390fd5b60066000610e2091906112c5565b818160069190610e319291906112e6565b505050565b6000600354905090565b6000806005805480602002602001604051908101604052809291908181526020018280548015610ec557602002820191906000526020600020905b8160009054906101000a900473ffffffffffffffffffffffffffffffffffffffff1673ffffffffffffffffffffffffffffffffffffffff1681526020019060010190808311610e7b575b5050505050905060005b8151811015610f6a578373ffffffffffffffffffffffffffffffffffffffff16828281518110610f28577f4e487b7100000000000000000000000000000000000000000000000000000000600052603260045260246000fd5b602002602001015173ffffffffffffffffffffffffffffffffffffffff161415610f5757600192505050610f71565b8080610f6290611974565b915050610ecf565b5060009150505b919050565b60026001541415610fbc576040517f08c379a0000000000000000000000000000000000000000000000000000000008152600401610fb390611821565b60405180910390fd5b6002600181905550662386f26fc1000034101561100e576040517f08c379a000000000000000000000000000000000000000000000000000000000815260040161100590611801565b60405180910390fd5b60006103e86004546103e861102391906118f8565b60025434611031919061189e565b61103b919061189e565b611045919061186d565b9050600760009054906101000a900473ffffffffffffffffffffffffffffffffffffffff1673ffffffffffffffffffffffffffffffffffffffff1663a9059cbb33836040518363ffffffff1660e01b81526004016110a49291906116fd565b602060405180830381600087803b1580156110be57600080fd5b505af11580156110d2573d6000803e3d6000fd5b505050506040513d601f19601f820116820180604052508101906110f691906114eb565b505060018081905550565b6111096111f9565b73ffffffffffffffffffffffffffffffffffffffff16611127610d9b565b73ffffffffffffffffffffffffffffffffffffffff161461117d576040517f08c379a0000000000000000000000000000000000000000000000000000000008152600401611174906117a1565b60405180910390fd5b600073ffffffffffffffffffffffffffffffffffffffff168173ffffffffffffffffffffffffffffffffffffffff1614156111ed576040517f08c379a00000000000000000000000000000000000000000000000000000000081526004016111e490611741565b60405180910390fd5b6111f681611201565b50565b600033905090565b60008060009054906101000a900473ffffffffffffffffffffffffffffffffffffffff169050816000806101000a81548173ffffffffffffffffffffffffffffffffffffffff021916908373ffffffffffffffffffffffffffffffffffffffff1602179055508173ffffffffffffffffffffffffffffffffffffffff168173ffffffffffffffffffffffffffffffffffffffff167f8be0079c531659141344cd1fd0a4f28419497f9722a3daafe3b4186f6b6457e060405160405180910390a35050565b50805460008255906000526020600020908101906112e39190611386565b50565b828054828255906000526020600020908101928215611375579160200282015b8281111561137457823573ffffffffffffffffffffffffffffffffffffffff168260006101000a81548173ffffffffffffffffffffffffffffffffffffffff021916908373ffffffffffffffffffffffffffffffffffffffff16021790555091602001919060010190611306565b5b5090506113829190611386565b5090565b5b8082111561139f576000816000905550600101611387565b5090565b6000813590506113b281611bd5565b92915050565b60008083601f8401126113ca57600080fd5b8235905067ffffffffffffffff8111156113e357600080fd5b6020830191508360208202830111156113fb57600080fd5b9250929050565b60008151905061141181611bec565b92915050565b60008135905061142681611c03565b92915050565b60008151905061143b81611c03565b92915050565b60006020828403121561145357600080fd5b6000611461848285016113a3565b91505092915050565b6000806040838503121561147d57600080fd5b600061148b858286016113a3565b925050602061149c85828601611417565b9150509250929050565b600080602083850312156114b957600080fd5b600083013567ffffffffffffffff8111156114d357600080fd5b6114df858286016113b8565b92509250509250929050565b6000602082840312156114fd57600080fd5b600061150b84828501611402565b91505092915050565b60006020828403121561152657600080fd5b600061153484828501611417565b91505092915050565b60006020828403121561154f57600080fd5b600061155d8482850161142c565b91505092915050565b61156f8161192c565b82525050565b61157e8161193e565b82525050565b600061159160268361185c565b915061159c82611a1b565b604082019050919050565b60006115b4602d8361185c565b91506115bf82611a6a565b604082019050919050565b60006115d760198361185c565b91506115e282611ab9565b602082019050919050565b60006115fa60208361185c565b915061160582611ae2565b602082019050919050565b600061161d601e8361185c565b915061162882611b0b565b602082019050919050565b600061164060118361185c565b915061164b82611b34565b602082019050919050565b600061166360218361185c565b915061166e82611b5d565b604082019050919050565b6000611686601f8361185c565b915061169182611bac565b602082019050919050565b6116a58161196a565b82525050565b60006020820190506116c06000830184611566565b92915050565b60006060820190506116db6000830186611566565b6116e86020830185611566565b6116f5604083018461169c565b949350505050565b60006040820190506117126000830185611566565b61171f602083018461169c565b9392505050565b600060208201905061173b6000830184611575565b92915050565b6000602082019050818103600083015261175a81611584565b9050919050565b6000602082019050818103600083015261177a816115a7565b9050919050565b6000602082019050818103600083015261179a816115ca565b9050919050565b600060208201905081810360008301526117ba816115ed565b9050919050565b600060208201905081810360008301526117da81611610565b9050919050565b600060208201905081810360008301526117fa81611633565b9050919050565b6000602082019050818103600083015261181a81611656565b9050919050565b6000602082019050818103600083015261183a81611679565b9050919050565b6000602082019050611856600083018461169c565b92915050565b600082825260208201905092915050565b60006118788261196a565b91506118838361196a565b925082611893576118926119ec565b5b828204905092915050565b60006118a98261196a565b91506118b48361196a565b9250817fffffffffffffffffffffffffffffffffffffffffffffffffffffffffffffffff04831182151516156118ed576118ec6119bd565b5b828202905092915050565b60006119038261196a565b915061190e8361196a565b925082821015611921576119206119bd565b5b828203905092915050565b60006119378261194a565b9050919050565b60008115159050919050565b600073ffffffffffffffffffffffffffffffffffffffff82169050919050565b6000819050919050565b600061197f8261196a565b91507fffffffffffffffffffffffffffffffffffffffffffffffffffffffffffffffff8214156119b2576119b16119bd565b5b600182019050919050565b7f4e487b7100000000000000000000000000000000000000000000000000000000600052601160045260246000fd5b7f4e487b7100000000000000000000000000000000000000000000000000000000600052601260045260246000fd5b7f4f776e61626c653a206e6577206f776e657220697320746865207a65726f206160008201527f6464726573730000000000000000000000000000000000000000000000000000602082015250565b7f4f6e6c792067616d6520636f6e7472616374732063616e20616374206f6e207060008201527f6c617965722062616c616e636500000000000000000000000000000000000000602082015250565b7f5573657220686173206e6f7420656e6f75676820636f696e7300000000000000600082015250565b7f4f776e61626c653a2063616c6c6572206973206e6f7420746865206f776e6572600082015250565b7f486f75736520686173206e6f7420656e6f756768206c69717569646974790000600082015250565b7f55736572206973206e6f742061646d696e000000000000000000000000000000600082015250565b7f4d696e696d756d20616d6f756e7420746f206465706f73697420697320302e3060008201527f3100000000000000000000000000000000000000000000000000000000000000602082015250565b7f5265656e7472616e637947756172643a207265656e7472616e742063616c6c00600082015250565b611bde8161192c565b8114611be957600080fd5b50565b611bf58161193e565b8114611c0057600080fd5b50565b611c0c8161196a565b8114611c1757600080fd5b5056fea26469706673582212208016a72f9490ba306fbbc8620a0feb171f1957270b5e754226e61198f4fdaa0064736f6c63430008040033",
  "linkReferences": {},
  "deployedLinkReferences": {}
}