{
  "_format": "hh-sol-artifact-1",
  "contractName": "Token",
  "sourceName": "src/backend/contracts/Token.sol",
  "abi": [
    {
      "inputs": [],
      "stateMutability": "nonpayable",
      "type": "constructor"
    },
    {
      "anonymous": false,
      "inputs": [
        {
          "indexed": true,
          "internalType": "address",
          "name": "owner",
          "type": "address"
        },
        {
          "indexed": true,
          "internalType": "address",
          "name": "spender",
          "type": "address"
        },
        {
          "indexed": false,
          "internalType": "uint256",
          "name": "value",
          "type": "uint256"
        }
      ],
      "name": "Approval",
      "type": "event"
    },
    {
      "anonymous": false,
      "inputs": [
        {
          "indexed": true,
          "internalType": "address",
          "name": "from",
          "type": "address"
        },
        {
          "indexed": true,
          "internalType": "address",
          "name": "to",
          "type": "address"
        },
        {
          "indexed": false,
          "internalType": "uint256",
          "name": "value",
          "type": "uint256"
        }
      ],
      "name": "Transfer",
      "type": "event"
    },
    {
      "inputs": [
        {
          "internalType": "address",
          "name": "owner",
          "type": "address"
        },
        {
          "internalType": "address",
          "name": "spender",
          "type": "address"
        }
      ],
      "name": "allowance",
      "outputs": [
        {
          "internalType": "uint256",
          "name": "",
          "type": "uint256"
        }
      ],
      "stateMutability": "view",
      "type": "function"
    },
    {
      "inputs": [
        {
          "internalType": "address",
          "name": "spender",
          "type": "address"
        },
        {
          "internalType": "uint256",
          "name": "amount",
          "type": "uint256"
        }
      ],
      "name": "approve",
      "outputs": [
        {
          "internalType": "bool",
          "name": "",
          "type": "bool"
        }
      ],
      "stateMutability": "nonpayable",
      "type": "function"
    },
    {
      "inputs": [
        {
          "internalType": "address",
          "name": "_spender",
          "type": "address"
        }
      ],
      "name": "approveUnlimited",
      "outputs": [],
      "stateMutability": "nonpayable",
      "type": "function"
    },
    {
      "inputs": [
        {
          "internalType": "address",
          "name": "account",
          "type": "address"
        }
      ],
      "name": "balanceOf",
      "outputs": [
        {
          "internalType": "uint256",
          "name": "",
          "type": "uint256"
        }
      ],
      "stateMutability": "view",
      "type": "function"
    },
    {
      "inputs": [
        {
          "internalType": "address",
          "name": "_stakerAddress",
          "type": "address"
        }
      ],
      "name": "claimInitialSupply",
      "outputs": [],
      "stateMutability": "nonpayable",
      "type": "function"
    },
    {
      "inputs": [],
      "name": "decimals",
      "outputs": [
        {
          "internalType": "uint8",
          "name": "",
          "type": "uint8"
        }
      ],
      "stateMutability": "view",
      "type": "function"
    },
    {
      "inputs": [
        {
          "internalType": "address",
          "name": "spender",
          "type": "address"
        },
        {
          "internalType": "uint256",
          "name": "subtractedValue",
          "type": "uint256"
        }
      ],
      "name": "decreaseAllowance",
      "outputs": [
        {
          "internalType": "bool",
          "name": "",
          "type": "bool"
        }
      ],
      "stateMutability": "nonpayable",
      "type": "function"
    },
    {
      "inputs": [
        {
          "internalType": "address",
          "name": "spender",
          "type": "address"
        },
        {
          "internalType": "uint256",
          "name": "addedValue",
          "type": "uint256"
        }
      ],
      "name": "increaseAllowance",
      "outputs": [
        {
          "internalType": "bool",
          "name": "",
          "type": "bool"
        }
      ],
      "stateMutability": "nonpayable",
      "type": "function"
    },
    {
      "inputs": [],
      "name": "initialSupplyClaimed",
      "outputs": [
        {
          "internalType": "bool",
          "name": "",
          "type": "bool"
        }
      ],
      "stateMutability": "view",
      "type": "function"
    },
    {
      "inputs": [],
      "name": "name",
      "outputs": [
        {
          "internalType": "string",
          "name": "",
          "type": "string"
        }
      ],
      "stateMutability": "view",
      "type": "function"
    },
    {
      "inputs": [],
      "name": "symbol",
      "outputs": [
        {
          "internalType": "string",
          "name": "",
          "type": "string"
        }
      ],
      "stateMutability": "view",
      "type": "function"
    },
    {
      "inputs": [],
      "name": "totalSupply",
      "outputs": [
        {
          "internalType": "uint256",
          "name": "",
          "type": "uint256"
        }
      ],
      "stateMutability": "view",
      "type": "function"
    },
    {
      "inputs": [
        {
          "internalType": "address",
          "name": "to",
          "type": "address"
        },
        {
          "internalType": "uint256",
          "name": "amount",
          "type": "uint256"
        }
      ],
      "name": "transfer",
      "outputs": [
        {
          "internalType": "bool",
          "name": "",
          "type": "bool"
        }
      ],
      "stateMutability": "nonpayable",
      "type": "function"
    },
    {
      "inputs": [
        {
          "internalType": "address",
          "name": "from",
          "type": "address"
        },
        {
          "internalType": "address",
          "name": "to",
          "type": "address"
        },
        {
          "internalType": "uint256",
          "name": "amount",
          "type": "uint256"
        }
      ],
      "name": "transferFrom",
      "outputs": [
        {
          "internalType": "bool",
          "name": "",
          "type": "bool"
        }
      ],
      "stateMutability": "nonpayable",
      "type": "function"
    }
  ],
  "bytecode": "0x60806040523480156200001157600080fd5b506040518060400160405280600781526020017f43726176617469000000000000000000000000000000000000000000000000008152506040518060400160405280600381526020017f4352560000000000000000000000000000000000000000000000000000000000815250816003908051906020019062000096929190620000b8565b508060049080519060200190620000af929190620000b8565b505050620001cd565b828054620000c69062000168565b90600052602060002090601f016020900481019282620000ea576000855562000136565b82601f106200010557805160ff191683800117855562000136565b8280016001018555821562000136579182015b828111156200013557825182559160200191906001019062000118565b5b50905062000145919062000149565b5090565b5b80821115620001645760008160009055506001016200014a565b5090565b600060028204905060018216806200018157607f821691505b602082108114156200019857620001976200019e565b5b50919050565b7f4e487b7100000000000000000000000000000000000000000000000000000000600052602260045260246000fd5b6118f280620001dd6000396000f3fe608060405234801561001057600080fd5b50600436106100e95760003560e01c8063395093511161008c57806395d89b411161006657806395d89b411461025e578063a457c2d71461027c578063a9059cbb146102ac578063dd62ed3e146102dc576100e9565b806339509351146101e257806353dd4bbc1461021257806370a082311461022e576100e9565b806318160ddd116100c857806318160ddd1461015a57806320758a9f1461017857806323b872dd14610194578063313ce567146101c4576100e9565b80620f582b146100ee57806306fdde031461010c578063095ea7b31461012a575b600080fd5b6100f661030c565b604051610103919061110d565b60405180910390f35b61011461031f565b6040516101219190611128565b60405180910390f35b610144600480360381019061013f9190610f30565b6103b1565b604051610151919061110d565b60405180910390f35b6101626103d4565b60405161016f919061126a565b60405180910390f35b610192600480360381019061018d9190610e7c565b6103de565b005b6101ae60048036038101906101a99190610ee1565b61048a565b6040516101bb919061110d565b60405180910390f35b6101cc6104b9565b6040516101d99190611285565b60405180910390f35b6101fc60048036038101906101f79190610f30565b6104c2565b604051610209919061110d565b60405180910390f35b61022c60048036038101906102279190610e7c565b61056c565b005b61024860048036038101906102439190610e7c565b61059a565b604051610255919061126a565b60405180910390f35b6102666105e2565b6040516102739190611128565b60405180910390f35b61029660048036038101906102919190610f30565b610674565b6040516102a3919061110d565b60405180910390f35b6102c660048036038101906102c19190610f30565b61075e565b6040516102d3919061110d565b60405180910390f35b6102f660048036038101906102f19190610ea5565b610781565b604051610303919061126a565b60405180910390f35b600560009054906101000a900460ff1681565b60606003805461032e90611565565b80601f016020809104026020016040519081016040528092919081815260200182805461035a90611565565b80156103a75780601f1061037c576101008083540402835291602001916103a7565b820191906000526020600020905b81548152906001019060200180831161038a57829003601f168201915b5050505050905090565b6000806103bc610808565b90506103c9818585610810565b600191505092915050565b6000600254905090565b60001515600560009054906101000a900460ff16151514610434576040517f08c379a000000000000000000000000000000000000000000000000000000000815260040161042b9061120a565b60405180910390fd5b6001600560006101000a81548160ff02191690831515021790555061047e8161045b6104b9565b60ff16600a61046a9190611365565b630d3b73806104799190611483565b6109db565b6104878161056c565b50565b600080610495610808565b90506104a2858285610b3b565b6104ad858585610bc7565b60019150509392505050565b60006012905090565b6000806104cd610808565b9050610561818585600160008673ffffffffffffffffffffffffffffffffffffffff1673ffffffffffffffffffffffffffffffffffffffff16815260200190815260200160002060008973ffffffffffffffffffffffffffffffffffffffff1673ffffffffffffffffffffffffffffffffffffffff1681526020019081526020016000205461055c91906112bc565b610810565b600191505092915050565b610596817fffffffffffffffffffffffffffffffffffffffffffffffffffffffffffffffff6103b1565b5050565b60008060008373ffffffffffffffffffffffffffffffffffffffff1673ffffffffffffffffffffffffffffffffffffffff168152602001908152602001600020549050919050565b6060600480546105f190611565565b80601f016020809104026020016040519081016040528092919081815260200182805461061d90611565565b801561066a5780601f1061063f5761010080835404028352916020019161066a565b820191906000526020600020905b81548152906001019060200180831161064d57829003601f168201915b5050505050905090565b60008061067f610808565b90506000600160008373ffffffffffffffffffffffffffffffffffffffff1673ffffffffffffffffffffffffffffffffffffffff16815260200190815260200160002060008673ffffffffffffffffffffffffffffffffffffffff1673ffffffffffffffffffffffffffffffffffffffff16815260200190815260200160002054905083811015610745576040517f08c379a000000000000000000000000000000000000000000000000000000000815260040161073c9061122a565b60405180910390fd5b6107528286868403610810565b60019250505092915050565b600080610769610808565b9050610776818585610bc7565b600191505092915050565b6000600160008473ffffffffffffffffffffffffffffffffffffffff1673ffffffffffffffffffffffffffffffffffffffff16815260200190815260200160002060008373ffffffffffffffffffffffffffffffffffffffff1673ffffffffffffffffffffffffffffffffffffffff16815260200190815260200160002054905092915050565b600033905090565b600073ffffffffffffffffffffffffffffffffffffffff168373ffffffffffffffffffffffffffffffffffffffff161415610880576040517f08c379a0000000000000000000000000000000000000000000000000000000008152600401610877906111ea565b60405180910390fd5b600073ffffffffffffffffffffffffffffffffffffffff168273ffffffffffffffffffffffffffffffffffffffff1614156108f0576040517f08c379a00000000000000000000000000000000000000000000000000000000081526004016108e79061116a565b60405180910390fd5b80600160008573ffffffffffffffffffffffffffffffffffffffff1673ffffffffffffffffffffffffffffffffffffffff16815260200190815260200160002060008473ffffffffffffffffffffffffffffffffffffffff1673ffffffffffffffffffffffffffffffffffffffff168152602001908152602001600020819055508173ffffffffffffffffffffffffffffffffffffffff168373ffffffffffffffffffffffffffffffffffffffff167f8c5be1e5ebec7d5bd14f71427d1e84f3dd0314c0f7b2291e5b200ac8c7c3b925836040516109ce919061126a565b60405180910390a3505050565b600073ffffffffffffffffffffffffffffffffffffffff168273ffffffffffffffffffffffffffffffffffffffff161415610a4b576040517f08c379a0000000000000000000000000000000000000000000000000000000008152600401610a429061124a565b60405180910390fd5b610a5760008383610e48565b8060026000828254610a6991906112bc565b92505081905550806000808473ffffffffffffffffffffffffffffffffffffffff1673ffffffffffffffffffffffffffffffffffffffff1681526020019081526020016000206000828254610abe91906112bc565b925050819055508173ffffffffffffffffffffffffffffffffffffffff16600073ffffffffffffffffffffffffffffffffffffffff167fddf252ad1be2c89b69c2b068fc378daa952ba7f163c4a11628f55a4df523b3ef83604051610b23919061126a565b60405180910390a3610b3760008383610e4d565b5050565b6000610b478484610781565b90507fffffffffffffffffffffffffffffffffffffffffffffffffffffffffffffffff8114610bc15781811015610bb3576040517f08c379a0000000000000000000000000000000000000000000000000000000008152600401610baa9061118a565b60405180910390fd5b610bc08484848403610810565b5b50505050565b600073ffffffffffffffffffffffffffffffffffffffff168373ffffffffffffffffffffffffffffffffffffffff161415610c37576040517f08c379a0000000000000000000000000000000000000000000000000000000008152600401610c2e906111ca565b60405180910390fd5b600073ffffffffffffffffffffffffffffffffffffffff168273ffffffffffffffffffffffffffffffffffffffff161415610ca7576040517f08c379a0000000000000000000000000000000000000000000000000000000008152600401610c9e9061114a565b60405180910390fd5b610cb2838383610e48565b60008060008573ffffffffffffffffffffffffffffffffffffffff1673ffffffffffffffffffffffffffffffffffffffff16815260200190815260200160002054905081811015610d38576040517f08c379a0000000000000000000000000000000000000000000000000000000008152600401610d2f906111aa565b60405180910390fd5b8181036000808673ffffffffffffffffffffffffffffffffffffffff1673ffffffffffffffffffffffffffffffffffffffff16815260200190815260200160002081905550816000808573ffffffffffffffffffffffffffffffffffffffff1673ffffffffffffffffffffffffffffffffffffffff1681526020019081526020016000206000828254610dcb91906112bc565b925050819055508273ffffffffffffffffffffffffffffffffffffffff168473ffffffffffffffffffffffffffffffffffffffff167fddf252ad1be2c89b69c2b068fc378daa952ba7f163c4a11628f55a4df523b3ef84604051610e2f919061126a565b60405180910390a3610e42848484610e4d565b50505050565b505050565b505050565b600081359050610e618161188e565b92915050565b600081359050610e76816118a5565b92915050565b600060208284031215610e8e57600080fd5b6000610e9c84828501610e52565b91505092915050565b60008060408385031215610eb857600080fd5b6000610ec685828601610e52565b9250506020610ed785828601610e52565b9150509250929050565b600080600060608486031215610ef657600080fd5b6000610f0486828701610e52565b9350506020610f1586828701610e52565b9250506040610f2686828701610e67565b9150509250925092565b60008060408385031215610f4357600080fd5b6000610f5185828601610e52565b9250506020610f6285828601610e67565b9150509250929050565b610f75816114ef565b82525050565b6000610f86826112a0565b610f9081856112ab565b9350610fa0818560208601611532565b610fa9816115f5565b840191505092915050565b6000610fc16023836112ab565b9150610fcc82611613565b604082019050919050565b6000610fe46022836112ab565b9150610fef82611662565b604082019050919050565b6000611007601d836112ab565b9150611012826116b1565b602082019050919050565b600061102a6026836112ab565b9150611035826116da565b604082019050919050565b600061104d6025836112ab565b915061105882611729565b604082019050919050565b60006110706024836112ab565b915061107b82611778565b604082019050919050565b60006110936027836112ab565b915061109e826117c7565b604082019050919050565b60006110b66025836112ab565b91506110c182611816565b604082019050919050565b60006110d9601f836112ab565b91506110e482611865565b602082019050919050565b6110f88161151b565b82525050565b61110781611525565b82525050565b60006020820190506111226000830184610f6c565b92915050565b600060208201905081810360008301526111428184610f7b565b905092915050565b6000602082019050818103600083015261116381610fb4565b9050919050565b6000602082019050818103600083015261118381610fd7565b9050919050565b600060208201905081810360008301526111a381610ffa565b9050919050565b600060208201905081810360008301526111c38161101d565b9050919050565b600060208201905081810360008301526111e381611040565b9050919050565b6000602082019050818103600083015261120381611063565b9050919050565b6000602082019050818103600083015261122381611086565b9050919050565b60006020820190508181036000830152611243816110a9565b9050919050565b60006020820190508181036000830152611263816110cc565b9050919050565b600060208201905061127f60008301846110ef565b92915050565b600060208201905061129a60008301846110fe565b92915050565b600081519050919050565b600082825260208201905092915050565b60006112c78261151b565b91506112d28361151b565b9250827fffffffffffffffffffffffffffffffffffffffffffffffffffffffffffffffff0382111561130757611306611597565b5b828201905092915050565b6000808291508390505b600185111561135c5780860481111561133857611337611597565b5b60018516156113475780820291505b808102905061135585611606565b945061131c565b94509492505050565b60006113708261151b565b915061137b8361151b565b92506113a87fffffffffffffffffffffffffffffffffffffffffffffffffffffffffffffffff84846113b0565b905092915050565b6000826113c0576001905061147c565b816113ce576000905061147c565b81600181146113e457600281146113ee5761141d565b600191505061147c565b60ff841115611400576113ff611597565b5b8360020a91508482111561141757611416611597565b5b5061147c565b5060208310610133831016604e8410600b84101617156114525782820a90508381111561144d5761144c611597565b5b61147c565b61145f8484846001611312565b9250905081840481111561147657611475611597565b5b81810290505b9392505050565b600061148e8261151b565b91506114998361151b565b9250817fffffffffffffffffffffffffffffffffffffffffffffffffffffffffffffffff04831182151516156114d2576114d1611597565b5b828202905092915050565b60006114e8826114fb565b9050919050565b60008115159050919050565b600073ffffffffffffffffffffffffffffffffffffffff82169050919050565b6000819050919050565b600060ff82169050919050565b60005b83811015611550578082015181840152602081019050611535565b8381111561155f576000848401525b50505050565b6000600282049050600182168061157d57607f821691505b60208210811415611591576115906115c6565b5b50919050565b7f4e487b7100000000000000000000000000000000000000000000000000000000600052601160045260246000fd5b7f4e487b7100000000000000000000000000000000000000000000000000000000600052602260045260246000fd5b6000601f19601f8301169050919050565b60008160011c9050919050565b7f45524332303a207472616e7366657220746f20746865207a65726f206164647260008201527f6573730000000000000000000000000000000000000000000000000000000000602082015250565b7f45524332303a20617070726f766520746f20746865207a65726f20616464726560008201527f7373000000000000000000000000000000000000000000000000000000000000602082015250565b7f45524332303a20696e73756666696369656e7420616c6c6f77616e6365000000600082015250565b7f45524332303a207472616e7366657220616d6f756e742065786365656473206260008201527f616c616e63650000000000000000000000000000000000000000000000000000602082015250565b7f45524332303a207472616e736665722066726f6d20746865207a65726f20616460008201527f6472657373000000000000000000000000000000000000000000000000000000602082015250565b7f45524332303a20617070726f76652066726f6d20746865207a65726f2061646460008201527f7265737300000000000000000000000000000000000000000000000000000000602082015250565b7f496e697469616c20737570706c792068617320616c7265616479206265656e2060008201527f636c61696d656400000000000000000000000000000000000000000000000000602082015250565b7f45524332303a2064656372656173656420616c6c6f77616e63652062656c6f7760008201527f207a65726f000000000000000000000000000000000000000000000000000000602082015250565b7f45524332303a206d696e7420746f20746865207a65726f206164647265737300600082015250565b611897816114dd565b81146118a257600080fd5b50565b6118ae8161151b565b81146118b957600080fd5b5056fea2646970667358221220349e937cbe71ea235b9f7e8fb97e834066da4978379f455b0dee92a69d78ebb264736f6c63430008040033",
  "linkReferences": {},
  "deployedLinkReferences": {}
}